:020000040800F2
:1000000000000220A9F70508759C0008896602080F
:1000100059F8050859F8050859F8050800000000C6
:10002000000000000000000000000000F5B3000820
:10003000F7B3000800000000F9B30008DD42010832
:1000400059F8050859F8050859F8050859F8050838
:1000500059F8050859F80508DFF50008E3F5000828
:1000600059F80508E7F50008EBF50008E1A50008D8
:10007000F5A5000809A600081DA6000831A600087D
:1000800045A6000859A6000859F805080000000018
:10009000000000000000000000000000EFF5000874
:1000A00019A5000841A5000869A5000803A50008D6
:1000B00091A50008A5A50008B9A5000859F80508EC
:1000C00059F8050859F8050859F8050859F80508B8
:1000D00059F80508CD9E0008D99E000800000000D0
:1000E000F3F5000859F80508FBB30008000000000C
:1000F0000000000000000000000000006DA60008E5
:100100000000000059F80508CDA5000859F80508B9
:1001100000000000000000000000000000000000DF
:1001200081A6000895A60008A9A60008BDA600089B
:10013000D1A6000800000000000000000000000040
:1001400000000000000000000000000045B40008AE
:10015000E5A60008F9A600080DA7000859F805084B
:1001600059F8050859F805080000000000000000D3
:10017000000000000000000000000000000000007F
:100180000000000059F80508000000000000000011
:0801900059F8050859F80508AB
:1001980081C90181008408B10000000081C9018182
:1001A800008408B10000000080C90181008408B102
:1001B8000000000080C90181B0AB08B10000000058
:1001C800C9010181B0B0AC8000000000C9060181FE
:1001D800B0B0AF85000000003F1A0181B0AF81C9FF
:1001E8000000000008B10181B0B0008400000000E8
:0C01F80008B10181B0B0008400000000DC
:10020400B4FB0500008402801CFC05000100000012
:100214008CFD050000840280F8FD0500010000004B
:10022400F4FD050070FFFF7F8CFE05000100000057
:1002340088FE05006CFFFF7F3CFF050070FFFF7F19
:100244007CFF050074FFFF7F64000600B0B0AE8041
:100254001402060001000000E8050600B0A80180B1
:100264003007060060FFFF7FAC0D0600B0AA0580D2
:1002740004100600010000000410060054FFFF7F74
:10028400681B060001000000F81D060050FFFF7FF8
:100294005424060001000000DC240600B0A80180FC
:1002A400EC240600010000001C250600B00D84802B
:1002B4002C25060001000000502506002CFFFF7FBE
:1002C4005C25060030FFFF7F6C250600AF08B18077
:1002D400A428060001000000B0280600A908B18087
:1002E4005C2A060001000000D85E0600A908B1805F
:1002F400005F060001000000CC5F0600B0A9028088
:100304005C600600B0B0A880AC600600010000008C
:10031400B4600600B0B0AA80E8600600AE71B28096
:10032400AC610600AB3F38800C620600010000009F
:1003340014620600B0B0AA805062060001000000FA
:10034400F0620600AA0DB2806C630600B0AF0880AC
:100354000C660600010000001C660600AD3F02802A
:10036400C468060001000000F4680600B0AD048013
:08037400786B06000100000097
:10037C00107D01200102000001006800307D012089
:10038C000203000001012C00507D0120020B000033
:10039C0001012C00707D01200207000001012C00DE
:1003AC00907D01200208000001012C00B07D01208D
:1003BC000204000001012C00D07D01200209000084
:1003CC0001012C00F07D0120010C000000007700E1
:1003DC00107E0120020D000000013F00307E012044
:1003EC000112000000007600507E01200111000077
:1003FC0000007600707E0120010F010000007700E4
:10040C00907E0120010E010000007700B07E0120DB
:10041C000113000000007600D07E012001150000C1
:10042C0000001E00F07E0120011B000000000D00EA
:10043C00107F01200116000000000C00307F01200D
:10044C000117000000000C00507F0120011C00006F
:10045C0000000E00707F0120011D000000001E0036
:10046C00907F01200118000000000C00B07F0120DB
:10047C000119000000000E00D07F0120011A0000BD
:10048C0000000C00F07F0120011F000000000C0098
:10049C00108001200120000000000C0030800120A1
:1004AC0001290100000018005080012001210000EA
:1004BC00000048007080012001220000000049006B
:1004CC00908001200123000000004A00B080012030
:1004DC000124000000004B00D08001200125000009
:1004EC0000004C00F08001200126000000004D00AF
:1004FC00108101200127000000004E0030810120F6
:10050C000128000000004F0050810120012C000048
:10051C000000290070810120012D0100000029003C
:10052C0090810120012E010000007000B08101209B
:10053C000130000000003100D0810120012F0100AA
:10054C0000005200F0810120013101000000280060
:10055C0010820120013201000000280030820120AD
:10056C00022A050000013E005082012002330000E7
:10057C0000011400708201200135000000003C00D5
:0C058C00908201200138000000002000D7
:10800000D0E907239A423CBFC1685218D01A704782
:10801000D0E9092300699A4238BF1218D31A0138EF
:10802000C01A7047D0E90902131A584258417047E4
:10803000036A41690246C85CD16801338B4228BF9C
:10804000002313627047436A8269D154436A02690C
:108050000133934228BF0023426B4362D36843F04D
:108060008003D3607047436B188810F010001EBF68
:108070001A889B8801207047436B99891A88890662
:1080800010B592B2044607D5900605D5E26A22B330
:108090009888216B80B29047636B99891A8809068A
:1080A00092B20FD510060DD5D4E909128A4222D01A
:1080B000A169895C998021690132B2FBF1F001FB71
:1080C0001022A262998A1A88C90592B204D5D207F1
:1080D00044BF4FF6F7721A8010BD9B88E269616950
:1080E000DBB28B54E369E2680133B3FBF2F102FBCC
:1080F0001133E361D0E7DA6822F08002DA60E1E769
:10810000036941681F2B30B54FF0200285BFA3F1F2
:1081100020054C680C68AA4098BF9A4022421DD0A6
:10812000826900201074D0688468206820F0010003
:108130002060546820686579094C828934F81540BC
:1081400092B21F2B22EA0402828188BF203B4FF0AB
:1081500020028BBF9A409A40CA608A6030BD00BF3F
:10816000DC7106080E4BDA68D20310D4DA68D10647
:108170000FD4DA68D2050ED4DA6812F0E00F0CD111
:10818000DB6813F0020F14BF08200920704701209C
:10819000704706207047022070470720704700BFD5
:1081A000003C024007B509238DF80730FFF7DAFFDE
:1081B0008DF807009DF80730012BF7D09DF80700D8
:1081C00003B05DF804FB838A028B9BB243EA02434F
:1081D00099430CBF01200020704782B00023019317
:1081E0000093012300900193019B63B1009A21F059
:1081F0007F4314320092009A12681A4214BF012081
:10820000002002B07047009A1832F3E770477047B9
:10821000704701207047034BD3E90003C01AC0F335
:108220000A007047D81A0020054AD2E900138B4291
:10823000FDD0D1180133C3F30A03087A53607047A5
:10824000D81A0020044BD3F8080820B1D3F8080846
:10825000431F584258417047D81A0020012380F824
:1082600049307047044BD3E90003C01AC0F30A0039
:10827000C0F50060704700BFD81A002010B5D0F8D4
:10828000E83504461B699847032384F8123100201F
:1082900010BD08B590F8123180F81331042380F82E
:1082A0001231D0F8E835DB689847002008BD08B5E2
:1082B000D0F8E435DB6903B19847002008BD08B564
:1082C000D0F8E4351B6A9847002008BD08B5D0F8FF
:1082D000E4355B6A9847002008BD30B501380024BA
:1082E00023460134055D002DFAD1DBB201335B007A
:1082F00013800B7003234B70022310F8014F04B955
:1083000030BD5A1CD2B2CC5402338D54DBB2F4E7E8
:1083100010B5074C2068FF2808D00649D1F80C2872
:1083200001F5016100F072F8FF232360002010BD09
:1083300000000020D81A0020432301480B8070471A
:1083400004000020122301480B80704747000020E2
:10835000042301480B8070475900002008B50A46E5
:1083600002490348FFF7B9FF084608BDF022002084
:108370009D20070808B50A4602490348FFF7ADFFEC
:10838000084608BDF0220020A920070808B50A46C3
:1083900002490348FFF7A1FF084608BDF02200206C
:1083A000AE20070808B50A4602490348FFF795FFC3
:1083B000084608BDF0220020B820070808B50A4684
:1083C00002490348FFF789FF084608BDF022002054
:1083D000C320070870477047704770477047704761
:1083E0007047054B00200522C3F80828C3F8180978
:1083F000C3F81C09704700BFD81A0020024B0020A8
:10840000C3F80808704700BFD81A0020212838B5E3
:108410000C461BD022282BD0202815D1A1B1072A29
:1084200012D11A4DD5F81C3913B1096800209847AC
:108430002368C5F82039237985F82439637985F8CC
:108440002539A37985F82639002038BD0029FBD0CD
:10845000072AF9D10D4BD3F820290A6093F8242973
:108460000A7193F825294A7193F826398B71EBE745
:108470000029E9D0022AE7D1044BD3F81839002BA0
:10848000E2D0098800209847DEE700BFD81A002014
:1084900030B50E4CD4E900329A1AC2F30A020A44EB
:1084A000B2F5006F10D801440022814203D102B11D
:1084B0002360002030BDE21810F8015B1572013313
:1084C000C3F30A030122F0E70220F3E7D81A0020E1
:1084D000202301480B8070475D00002012230148D3
:1084E0000B8070477D000020042301480B807047FB
:1084F0008F0000200A4608B5044920B90448FFF758
:10850000ECFE024808BD0348F9E700BFFF23002046
:10851000D1200708E920070808B50A4602490348A0
:10852000FFF7DBFE084608BDFF23002001210708F6
:1085300008B50A4602490348FFF7CFFE084608BDC2
:10854000FF2300201421070808B50A460249034802
:10855000FFF7C3FE084608BDFF2300201F210708C0
:10856000002370B54D1C1E46040FB0F1204F34BFE0
:108570003034373401F8134005F813600133DCB2AE
:10858000A2424FEA0010EFD870BD1A2310B50B803D
:10859000094BD3F8E807D3F8EC2780180AD0D3F8B2
:1085A000EA4706490822FFF7DBFF04221031204684
:1085B000FFF7D6FF024810BD00F0FF1F9500002016
:1085C000930000204FF400731360034BD3F8303A4C
:1085D0000B600020704700BFD81A002000207047B1
:1085E00001207047012070470020704730B41446C6
:1085F0001A69A24209D30D19AA429B6938BF111BFF
:108600000A46E11830BC5AF0B7BC30BC704770471E
:108610007047D0ED007AD0ED036A30EE677AE6EE6F
:10862000877AB0EE670AC0ED007A7047D0ED017A24
:10863000F5EE407AF1EE10FA09D1DFED0F7A60EE37
:10864000A70AB7EE007AC7EE207AC0ED017AD0ED26
:10865000017A80ED021A71EE277AC1EE276AD0ED19
:10866000007AC0ED036A30EE677AE6EE877AB0EE04
:10867000670AC0ED007A7047DB0FC940D0ED056A8C
:10868000D0ED017A90ED007A90ED026AD0ED045AB7
:1086900080ED050A66EEA77AE7EE007A90ED067A9D
:1086A000C0ED066AE6EE077A90ED077A90ED036A70
:1086B000E6EE477A90ED086A80ED087AE5EEC67A34
:1086C000C0ED077AB0EE670A704790ED007AD0ED02
:1086D000057AD0ED016AE7EE007A90ED037A27EE95
:1086E000677AA6EE807AD0ED066A36EE877AD0ED0C
:1086F000026A80ED057A90ED047A27EE677AA6EE9D
:10870000807AB0EE670A80ED067A704703685A1CDB
:108710000260197070472DE9F04F89B083680793A4
:10872000D0E900320292013292FBF3F103FB1122F5
:108730004260029ADFED967A00EB820282ED200A17
:10874000B1EE400A82ED400A00F18006A3F1020E6C
:1087500000F580700124B0EE670A079AA24208DA99
:1087600030EE670AF6EE007A20EE270A09B0BDE87F
:10877000F08F029ACDF80CE00EEB020191FBF3F2C0
:1087800003FB12114A1C92FBF3F503FB152206EBC7
:10879000810500EB810191ED006A0591A118D5EDED
:1087A000006A04951F1B91FBF3F503FB1511009163
:1087B000F046019115460697039F06998F420CDB00
:1087C0000499D1ED006A059991ED006A06998845F2
:1087D00074DB0134AEF1020EBFE7AB42D8BF002517
:1087E00006EB8509019999ED000A8B42D8BF00215B
:1087F000B4EEE60A00EB850A00EB810BF1EE10FA0D
:10880000DAED007ADBED005A01914FEA810C10DCC1
:10881000F4EEC67AF1EE10FA2EDC0199039F0131D5
:108820000137013501910397B0EE676AF0EE406AB7
:10883000C2E7B4449CED007AB4EEC70AF1EE10FA38
:10884000E6DDB4EE667AF1EE10FA48BFB0EE667A75
:1088500089ED007AAC464FF001094C45D8D00CF1B7
:10886000010C6345D8BF4FF0000C06EB8C0B8BED71
:10887000007A09F10109F0E7F4EEE57AF1EE10FA79
:10888000CBDDF4EEC65AF1EE10FA54BFB0EE650A35
:10889000B0EE460A8AED000AAC464FF001094C459D
:1088A000BBD00CF1010C6345D8BF4FF0000C00EBBE
:1088B0008C0A8AED000A09F10109F0E79342D8BF5A
:1088C000002206EB8207009997ED000A8B42D8BF81
:1088D0000021B4EEE60A00EB820C00EB8109F1EE18
:1088E00010FADCED007AD9ED005A00914FEA8105CB
:1088F00016D5354495ED007AB4EEC70AF1EE10FABC
:108900000ED5B4EE667AF1EE10FAC8BFB0EE667A14
:1089100087ED007A15460127BC4225D1B0EE470A03
:10892000F4EEC67AF1EE10FA13D5F4EEE57AF1EE34
:1089300010FA0ED5F4EEC65AF1EE10FAD4BFF0EEEE
:10894000657AF0EE467ACCED007A15460127BC42F6
:1089500014D1009901310132009108F10108B0EE03
:10896000676AF0EE406A31E70135AB42D8BF0025B7
:1089700006EB850989ED007A0137CDE70135AB4279
:10898000D8BF002500EB850CCCED007A0137DEE77F
:108990000000000003690133012B036108D1DFED02
:1089A000117A80ED010A80ED000AC0ED027A70476D
:1089B00090ED006A07EE903A70EE466AF8EEE77ABC
:1089C00086EEA77AD0ED027A37EE067A30EE470AC5
:1089D00080ED017AE6EE807AB0EE470AC0ED037AC8
:1089E000E1E700BF0000000003685A1C0260197034
:1089F0007047007970470079C0F3401070470079E4
:108A00004009704790F83C20034602F0FF0012B185
:108A1000002283F83C2070472DE9F843D0F81480F9
:108A200007468946B8F1000F57D10568C5F30D0612
:108A300006B3D9F80060FFF7B5FB092840F086803F
:108A4000444C236923F440732361236943F4007386
:108A50002361236943F0010323612E60FFF7A2FB2A
:108A60002369092823F0010323616FD13B68043394
:108A70003B6032E0384B9D4229D303F580439D4251
:108A800024D303F580439D422AD3344B9D4229D9F8
:108A900003F580339D4227D903F500339D4225D944
:108AA00003F500339D4223D903F500339D4221D9BC
:108AB00003F500339D421FD903F580239D421DD944
:108AC000B5F1016F1CD305200BF0ABFC0826FFF7B6
:108AD00069FB092816D04FF0FF384046BDE8F883FF
:108AE0001026F4E71826F2E72026F0E72826EEE71E
:108AF0003026ECE73826EAE74026E8E74826E6E7AE
:108B00005826E4E7134C236923F440732361236957
:108B100043F400732361236923F0F803236123697D
:108B2000334343F002032361236943F48033236119
:108B3000FFF738FB236923F0020323612369092827
:108B400023F0F80323613FF474AFC4E76FF001082A
:108B5000C3E700BF003C024000400008FFFF0008E0
:108B600003682DE9F04104464068134483421AD853
:108B70000D468E1804F10C074FF00008B54202D1E3
:108B80006069BDE8F08123695A1C2261234415F80D
:108B9000011B1973042AF1D139462046FFF73CFF27
:108BA000C4E90480EAE74FF0FF30EAE72DE9F34734
:108BB000038A8689B6B205460C461E404FF000492E
:108BC00001F14C0701F1340816B902B0BDE8F08795
:108BD000B6FA86F329FA03F2D24391B229821640FB
:108BE0001B3B002C40D0042BEED8DFE803F03934D7
:108BF0002E280300E368D5F82CA02BB19B681BB18D
:108C00001FFA8AF1201D9847636A33B19B6823B12C
:108C10001FFA8AF104F11C009847E36B2BB19B68A3
:108C20001BB11FFA8AF140469847636D002BCBD0E9
:108C30009B68002BC8D01FFA8AF1384603E0E3682E
:108C4000696B5B68201D9847BEE7636AA96B5B6828
:108C500004F11C00F7E7E36BE96B5B684046F2E761
:108C6000636D296C5B68E8E7042B06D8DFE803F046
:108C70000D0B09070300EB6A0193019BA4E76B6BE3
:108C8000FAE7AB6BF8E7EB6BF6E72B6CF4E790F8E1
:108C90004820531C0244DBB280F8483082F834107C
:108CA00090F849200AB1132B01D955F0AFBC704799
:108CB000002280F8492055F0A9BC70B5124D95F8F6
:108CC000603A002BFBD104464618B44204D1002080
:108CD00070BD01200BF09AFBD5F8643AD5F8682AEC
:108CE0000133C3F30A039342F3D0D5F8643A14F87E
:108CF000012B2B4483F86C2AD5F8643A0133C3F373
:108D00000A03C5F8643AE0E7D81A002038B50C46E3
:108D10001146FFF797FA48B1054D002AD5F874318E
:108D200004DD2046FFF7C9FFD5F8743138BD00BF18
:108D3000D02B0020F0B590F8CF3590F8CE1590F8F4
:108D4000D12590F8CC7590F8CDC501EB032190F8B2
:108D5000D0358DB203EB022390F8D31590F8D225CD
:108D600085B002EB012207F01F06012192B29BB2EF
:108D70008E4204468DF808708DF809C0ADF80A508F
:108D8000ADF80C30ADF80E20C0F8402180F811117C
:108D900000F00C81022E00F01D81002E40F0998120
:108DA000BCF1090F5ED8DFE81CF0B600F4005D00EE
:108DB000C8005D0057000A005D00A90076002E0A79
:108DC000022EADF806200BD0032E25D0012E49D15E
:108DD000D0F8EC351B68A0780DF10601984709E042
:108DE000D0F8E43580789B6A0DF10601984746700B
:108DF000C4F8F005BDF80620002A47D0BDF80E30B3
:108E0000002B43D09A4228BF1A46ADF806200146EF
:108E1000204655F0E9FA39E0E9B2052922D8DFE821
:108E200001F003070B0F1317D0F8EC355B68D2E79E
:108E3000D0F8EC359B68CEE7D0F8EC35DB68CAE7B4
:108E4000D0F8EC351B69C6E7D0F8EC355B69C2E7B2
:108E5000D0F8EC359B69BEE71A4303D190F8123184
:108E6000032B03D1204652F00DFF0FE0036905F0FC
:108E70007F0680F81461196865F30A120A431A60C4
:108E800055F0C6FA2EB1022384F81231002005B045
:108E9000F0BD0123F8E7E9B28F4D012985F878117B
:108EA000E0D890F81231022B0FD0032BDAD1C1B9E0
:108EB000022380F81231D0F8E43580F810115B6895
:108EC0009847204655F0A4FAE0E70029F9D001219F
:108ED000032380F8101180F81231204655F084F9F0
:108EE000EFE790F810110129EBD0D0F8E4355B687A
:108EF000984795F8781184F81011EEE7012AB1D15E
:108F000090F81231022B04D0032BABD100F58871FD
:108F10007EE772497CE790F81231023B012BA1D821
:108F20006D4B0022C3F88021D0F8182112B1022223
:108F3000C3F880216A4902226AE7012D08D1C0F8EE
:108F40001851D4F8E43502A99B6820469847B8E741
:108F5000022D9BD1DAB2002A98D102691B0A023B8A
:108F60005268032B03D8DFE803F0120C0E10012324
:108F700063F30612584BC3F88421012384F8163199
:108F80009FE70323F4E70423F2E70523F0E7022336
:108F9000EEE790F81231023B012B3FF663AF012D53
:108FA0007FF474AF0023C0F81831CAE790F812219B
:108FB000032A7FF457AFDBB2012B3FF653AFD0F853
:108FC000E43502A99B689847BDF80E30002B7FF46A
:108FD0005DAF76E707F06007202FD9B205D1D0F852
:108FE000E43502A99B68984750E7BCF1010F37D0E0
:108FF000BCF1030F24D0BCF1000F7FF447AF90F811
:109000001221022A5FD0032A7FF42CAF13F0800FC5
:1090100018BF01F07F014FF0280315BF03FB0101CA
:1090200003FB010191F81E3191F876332A49003B88
:1090300018BF0123C1F88831022201F5C471E7E6A7
:1090400090F81231022B3ED0032B7FF40BAF002D92
:109050007FF477AF4A063FF474AF55F0D1F870E76C
:1090600090F81221022A2ED0032A7FF4FBAE002DA5
:109070007FF40CAF11F07F003FF423AF5BB22822E6
:10908000002BB5BF02FB004202FB014202F58E72CB
:1090900002F55D720021DB0F91701070D178537072
:1090A00004EB80006BB18269136802396FF355538A
:1090B00001298CBFC3F30071012161F31C7313609C
:1090C0003FE7426DF0E74B063FF4E0AE55F098F80D
:1090D000DCE607F08001F9E7D02B00204C2D0020C2
:1090E000502D002010B5044671BB90F81131032BB0
:1090F0001BD1D0F89023D0F87C339A4217D9C1788D
:10910000012908BFD0F88013A2EB030204BFC918DD
:10911000C0F88013934228BF1346C0F890239BB237
:10912000D0F88023002155F023FA002010BDD0F89C
:10913000E4351B6923B190F81221032A00D1984726
:10914000204655F065F9F0E7D0F8E4359B69002B2F
:10915000EBD090F81221032AE7D19847E5E770B5E4
:109160000A7812F0600406460D462AD0202C2FD132
:10917000CC884B78FCB112060CD51F492246184604
:10918000FFF744F9EA881C49304655F02DF90024D0
:10919000204670BD194A1360194A0323C2F80C48CF
:1091A00080F81131C0E9E444234602F50162002150
:1091B00055F0DEF9EBE7022211441846FFF726F9D5
:1091C000E6E74B780A2B08D00B2B0BD0062BDFD110
:1091D000304652F057FD0224DAE70A49012255F0E1
:1091E00003F9D5E78B781BB9074BC3F88C41CFE760
:1091F00052F048FDCCE700BFE8220020000000202C
:10920000D81A00205C2D0020D02B002010B5282378
:1092100003FB0101074AB1F88C1304461046FFF71F
:1092200037F92046034A4023012155F0A1F90020D7
:1092300010BD00BF602D002070B50E4BD3F8DC21AF
:1092400093F8D051044632B193F8E0312B4302D168
:10925000012154F0D5FF8121204654F0D1FF022D89
:1092600007D12046044ABDE870401F23012155F074
:109270007FB970BDD02B0020A42D0020002310B595
:1092800019460446402255F016F840228021204617
:10929000002355F010F8012384F81231D4F8E83592
:1092A000A0785B689847002010BD38B5402204467E
:1092B0000223812154F0FFFF204602234022012196
:1092C00054F0F9FF204603230822822154F0F3FFD3
:1092D000084B0222002583F84B2083F84C50FFF7FF
:1092E00080F801212046044A402355F041F92846E0
:1092F00038BD00BF00000020602D002010B5812186
:10930000044654F0AFFF2046012154F0ABFF204645
:10931000822154F0A7FFFFF771F8002010BD10B5AF
:109320008121044654F09EFF2046012154F09AFF0B
:10933000024B002083F8F40110BD00BFD02B0020A9
:10934000F8B5224D95F8602A012A03462DD1204F09
:10935000D7F8F84114B985F8604A1FE0402C22D8AC
:109360001ED0A6B2D5F8681A1A4A0A44C3E9542294
:1093700040F201110022A3F84411C3E9566203F53B
:10938000A271184655F05BF8D5F8683A3344C3F338
:109390000A03A41BC5F8683AC7F8F8410020F8BDD5
:1093A000022285F8602A4026DCE7022AF6D1002452
:1093B00040F20112C0E95444C0E95644A0F84421E7
:1093C00000F5A27155F03BF8C5E700BFD81A0020A0
:1093D000D02B002044250020F8B5294FD7F8FC31C8
:1093E0000F2B03F1010203D0C7F8FC210020F8BDC8
:1093F000244C0023C7F8FC3194F8603A002BF5D1D7
:10940000D4F8682AD4F8643A9A42EFD0D4F8682A9B
:10941000D4F8643A9A4295BFD4F8645AD4F8685A9A
:10942000D4F8683AC5F5006598BFED1A402D20D8EC
:1094300022D0AEB20123D4F8682A84F8603A124BE5
:109440001344C0E9543340F201120023C0E95663CB
:10945000A0F8442100F5A27154F0F1FFD4F8683A65
:109460003344C3F30A03AD1BC4F8683AC7F8F85194
:10947000BCE701234026DEE702232E46DBE700BFE0
:10948000D02B0020D81A00204425002070B50446B7
:10949000144EFFF744FF204602234022812154F05E
:1094A0000AFF402201212046022354F004FF002538
:1094B000D6F8003286F8F4511B6886F8D051284659
:1094C0009847E06855F072F8E068012155F084F89B
:1094D00020461F2306F5EA72012155F049F8284677
:1094E00070BD00BFD02B002008B5002052F06CFEEC
:1094F000002008BD2DE9F843089D0E4617460021BF
:109500002022044698465BF0A7FE4DB12B68E3810C
:109510001A0C6B682282E3821A0C6B8922836382A5
:10952000304655F0E7F9FB0604D400F1FF39B9F1F4
:10953000FF3F41D1082802464FF0FF39A8BF08225B
:1095400000254FF02033236063603146204659F0F8
:1095500013FD234A228104F1080309F10101A272DB
:1095600018462A46314459F007FD621E0346E01DA5
:1095700012F8011FA1F16105192D9CBF203911704E
:109580008242F5D1184604F10B0210F8013BA3F119
:10959000610119299CBF203B00F8013C9042F4D1A5
:1095A000182323734FEA1843A382099BE772A4F898
:1095B0001A80E361BDE8F88316F809302E2B02D03B
:1095C00009F1FF39B3E74A46A0EB0905082A05F17E
:1095D000FF35A8BF0822032DA8BF0325B1E700BFB0
:1095E000202020002DE9F04F012085B00D461646C1
:1095F000994652F0E9FDB64F04352C1FB9F1000F22
:1096000006D1484652F0E0FD484605B0BDE8F08F6F
:10961000D7F8482AB24200F2B780D7F858AAA6EB8A
:1096200002084FEAD803DAF830200233934208F0F8
:10963000070803D3DAF83820934218D95146184660
:10964000039352F06BF8039B824670B9A5F10803AF
:1096500005F5FC729F4943F8041F9342FAD109F1C2
:10966000FF39013605F50075C7E7C7F8580A9AF8BB
:109670000420002A6DD04FF40072002120465BF0D8
:10968000EBFDDAF84030B8F1000F47D1CDE90088A2
:1096900005F11C0B43BB43462046D7F8341A082279
:1096A000FFF728FF5C464FF4F073DAF8448004EBD0
:1096B000030AB8F1000FD2D05445D0D098F8042056
:1096C000D8F80010D8F8303004F1200B08F11C0055
:1096D000B2B30022CDE9000211222046FFF70AFFB3
:1096E0005C46D8F84880E4E7DAF830307A4911224D
:1096F0002046FFF7FFFEDAF840301A6C05F13C0413
:10970000CDE9008842B94346744911225846FFF713
:10971000F1FE4FF4E073C8E71B6BF5E7002B0CBFBD
:1097200001230223C3EB0813DAF84480B8F1000FD9
:1097300003D0013BD8F84880F8D14FF40073B6E766
:1097400098F805C0D8F81020CDE900024CF02102AD
:10975000C3E7DAF828B0BBF1000F06D14FF400726E
:10976000002120465BF078FD79E7DAF830209B1A7B
:10977000DAF80C2008EBC30802EB482253464FF4FA
:1097800000712046D8476AE7002E64D14FF400727A
:10979000314620465BF060FD802385F8BA310C230A
:1097A00085F8BE31D7F8382A4D49D7F8303AC4F891
:1097B000C6218A42C4F8CA3118DDFF2285F8BB21D0
:1097C00085F8BD2185F8BC21454A013B934228DD3F
:1097D000FF2385F8BF3185F8C13185F8C0315523A5
:1097E00085F8FA31AA2385F8FB3138E73F2192FB4F
:1097F000F1F1C1EB811C43F6C16492FBF4F4A2EBDE
:109800000C02A01020F03F000132024385F8BC2179
:10981000FF2291FBF2F2114485F8BD4185F8BB119E
:10982000D2E73F2293FBF2F2C2EB821443F6C1600F
:1098300093FBF0F01B1B811021F03F0101330B4320
:1098400085F8C031FF2392FBF3F31A4485F8C10178
:1098500085F8BF21C3E7D7F83C3A9E4242D1522354
:10986000237063706123A37084F8E731D7F8503A0E
:10987000C4F8E8314FF000084FF0FF334122722165
:10988000E27084F8E41184F8E51184F8E62184F8A4
:10989000EC3184F8ED3184F8EE3184F8EF314FF497
:1098A000F072414628465BF0D7FC5523C5F8EC81A1
:1098B000C5F8F081C5F8F48184F8FE316FF05503E6
:1098C00084F8FC8184F8FD8184F8FF31C7E600BF8D
:1098D000D81A0020DEADBEEFC7520708C6520708EF
:1098E000FF03FB00D7F8383A9E426DD14FF4007267
:1098F000002120465BF0B0FCEB2305F8043C3B4A1A
:10990000582305F8033C902305F8023C136845F8FA
:10991000013C5368C5F80330022200234FF0080CC5
:10992000F821E372227385F809C0A273E3736974A6
:109930003F212A7321764FF0FF31A1763E21D7F8DF
:10994000380A2177D7F8301A84F82C20091A2162B6
:10995000D7F8400AD7F8441A63760122091AE37649
:109960006377A377E37784F82D3084F82E3084F87A
:109970002F30616284F8302084F83130802385F8FC
:109980003C30292385F83E30942385F83F300E2360
:1099900085F840300D2385F84130154B85F842C0DD
:1099A0001A68C5F843205A68C5F847201A89A5F8EF
:1099B0004B20104A9B7A85F84D301368C5F84E301D
:1099C0005368C5F852300AE7D7F8401AD7F8443A36
:1099D0008E4206D39E4207D2711A204651F0C4FE31
:1099E0003DE69E42FFF4BAAEF11AF6E72D210708D4
:1099F000362107084221070813460A460146184641
:109A00003AF094BA024BD3F804020AF081BB00BFCB
:109A1000D02B00200068F022FF2105F055BFCB437A
:109A200041EA0311CAB20068D22105F04DBF0068B7
:109A3000B422FF2105F048BF0A460068A52105F0C1
:109A400043BF5521F8E700689622FF2105F03CBF8F
:109A50000A460068872105F037BFC90101F080027E
:109A60000068782105F030BF38B504461546006817
:109A70000A46E12105F028FF30B120682A46FF217F
:109A8000BDE8384006F0BEBF38BD0A46E121EBE72D
:109A90000A46C321E8E738B5021D0D46F021044609
:109AA000FFF7E2FF08B123792B7038BDF8B5044603
:109AB0000E461546071D20683A46FF2106F0A2FF14
:109AC00030B116B12379DB07F5D40DB123792B70B2
:109AD000F8BD00220121E9E710B50446FFF7A7FF12
:109AE00018B12046BDE81040F3E710BD10B504469C
:109AF000FFF7A2FF18B12046BDE81040E9E710BD0E
:109B000070B506460C468D18AC4201D1012006E026
:109B100014F8011B3046FFF7E9FF0028F4D170BDAF
:109B2000CC21E3E738B504460D46FFF78CFF40B182
:109B30002046FFF7CEFF20B129462046BDE8384039
:109B4000A3E7002038BD70B506460C468D18AC4220
:109B500001D1012006E021463046FFF7E3FF013442
:109B60000028F4D170BD38B505461446FFF770FFE4
:109B70002846FFF7AEFF20B11CB12B79C3F3401389
:109B8000237038BD10B50446FFF7A6FF38B1204654
:109B9000FFF7C6FF18B12046BDE8104099E7002046
:109BA00010BD73B50546CDE90023FFF795FFA8B1B9
:109BB0002846FFF746FF88B12846FFF78AFF68B1BD
:109BC0006E46082416F8011B2846FFF78FFF28B1C0
:109BD000013C14F0FF04F5D102B070BD0020FBE79A
:109BE000C90138B501F0800104461546FFF735FF7D
:109BF00008B9002038BD002201212046FFF756FF9A
:109C00000028F6D023795B092B70F3E710B5021D0D
:109C10000446FF21006806F0F5FE18B12079C04324
:109C200000F0010010BD0F49D1F8883043F47003F3
:109C3000C1F888300C4B1A68002042F001021A600B
:109C400098601A6822F0847222F480321A60074AFF
:109C50005A601A6822F480221A60D860044B8B6024
:109C6000704700BF00ED00E00038024010300024D3
:109C700000000008704782B00023019300933C4B22
:109C80001A6842F480321A601A6802F400320092B4
:109C9000019A01320192009A1AB9019AB2F5A04FC5
:109CA000F2D11B6813F4003318BF01230093009B0B
:109CB000012B56D12E4B2F491A6C42F080521A6458
:109CC0000A6842F440420A609A689A609A689A6008
:109CD0009A6842F480529A60274A5A601A6842F0A1
:109CE00080721A601A689001FCD5244A40F2027111
:109CF00011609A6822F003029A609A6842F00202A8
:109D00009A601B4B9A6802F00C02082AFAD19A68F2
:109D100002F00C02042A26D0082A26D159685A6873
:109D20005B684902C3F388134CBF1549154902F01B
:109D30003F02B1FBF2F253430D4A5268C2F30142B3
:109D400001325200B3FBF2F3094A0F499268C2F3A1
:109D500003120A4492F8AD20D340C1F8C03002B0DB
:109D6000704700BFFDE7064BEEE7064BECE700BF90
:109D7000003802400070004019304004003C0240AE
:109D800040787D010024F400000000200028ACBFD2
:109D900000F16040064B4FEA0111ACBF00F5614095
:109DA00000F00F00C9B2B4BF195480F80013704717
:109DB00014ED00E02DE9F0479846414B914603EB46
:109DC000800205469468002C77D02833636004F144
:109DD0003E03A36104F59F73E3614FF48073C4E90C
:109DE0000433236894F83D00E160A36307F046FD67
:109DF000064694F8440294F83CA0271D08B152F09E
:109E0000AFFB94F8450208B152F0AAFBD4F84032F7
:109E10001BB12C4A116B0B43136318F0080F2BD0A6
:109E20000135EDB21EB140F20773F380357218F0C0
:109E3000100F94F8462219D00221304607F0F6FBA5
:109E400094F94722D4F8481294F847521046FFF785
:109E50009DFF002A07DB1C49520905F01F0501235D
:109E6000AB4041F822303846BDE8F08718F0200FAB
:109E700014BF12213221E0E719F0020F0CD06B1C45
:109E8000DBB21EB140F20752F280337294F84622E0
:109E90000221304607F0CAFB19F0010FD0D050461E
:109EA00007F0ECFC0135EDB218B140F20763C38056
:109EB000057294F846220221C0E72746D3E700BF87
:109EC000DC7106080038024000E100E00148FEF7BE
:109ED000D3B800BFC80000200148FEF7CDB800BFCE
:109EE00014030020064A002352F83310814201D1A6
:109EF000D8B2704701330E2BF6D1FF20704700BF58
:109F000038720608704770B5002828D04C684CB9E4
:109F1000426815685679AB8902229BB2B24023EAA7
:109F20000203AB818A683AB943681D68AB8923F0A4
:109F300001031B041B0CAB81816044B143681968A9
:109F40005D798C890223AB4023439BB28B8132B174
:109F500043681A6893899BB243F00103938170BDF3
:109F60000B4B30B51A4600241D79854208D1DD68B7
:109F7000294203D0142303FB042030BD0029F9D06B
:109F800001340D2C03F11403EED10020F5E700BFDE
:109F90005C05002038B503681B681C68244B07EE7D
:109FA000902A93ED307AF8EE677AB8EE477A013965
:109FB00087EE270A8DB2DFED1F7A30EE270A55F0C3
:109FC0007BFF1D4A23880138944280B29BB212D095
:109FD00002F5806294420ED0B4F1804F0BD0A2F50E
:109FE0008032944207D002F58062944203D002F599
:109FF0008062944202D123F070039BB20F4A9442D4
:10A0000006D002F5806294421CBF23F440739BB2D9
:10A010002380094BE5629C42208503D003F58063D1
:10A020009C4201D1002323860123A38238BD00BFB7
:10A03000000000200AD7233C00000140001000402F
:10A0400070B50546FFF7A6FF2B681E68747974B1DA
:10A0500062B203211046FFF799FE002A07DB104980
:10A06000520904F01F040123A34041F82230B479BF
:10A0700074B162B203211046FFF788FE002A07DBA5
:10A080000749520904F01F040123A34041F822307C
:10A090006B681A6813889BB243F00103138070BD8C
:10A0A00000E100E070B546684D487379034481F0E3
:10A0B000010493F8CC50D030012350F823108A4289
:10A0C00026D25A1E336892B2198C35BB21F0010199
:10A0D0000904090C1984198B188C89B221F0F30139
:10A0E00080B241EA021220F00A0192B241EA440130
:10A0F00042F0010241F001011A8319841A8B22F007
:10A100000C021204120C1A831A8B92B21A8370BDBD
:10A110000133102BD1D10F22D4E7042D1CD121F013
:10A1200010010904090C1984188B198C20F4407053
:10A13000000589B2000D40EA023021F0A00280B291
:10A1400042EA441242F0100240F4807018831A84EC
:10A150001A8B22F44062D4E7082D22D121F48071B9
:10A160000904090C1984988B198C80B289B220F0EB
:10A17000F30021F4206140EA021241EA442192B244
:10A1800089B242F0010241F480719A8319849A8B5A
:10A1900022F00C021204120C9A839A8B92B29A83C8
:10A1A000B5E721F480510904090C1984988B198CA6
:10A1B00020F440700005000D40EA023045F6FF72C1
:10A1C0000A4042EA443280B292B242F4805240F4F1
:10A1D000807098831A849A8B22F44062DAE700BF79
:10A1E000DC710608F0B543689D795C7905F0020ED4
:10A1F00015F004051FBF75464FF0000E724604208F
:10A2000011BFF4464FF4807228464FF0010C032C26
:10A210003AD8DFE804F0023A75B01B681C8C24F0D1
:10A2200001042404240C1C841C8C9F881E8B24F0A5
:10A2300002042404240C4CEA0E0C26F073064CEAAB
:10A24000040C654C3604360CA342BFB246F06006DF
:10A2500003D004F58064A34209D14FF6F3740CEAED
:10A2600004042C4327F4407740EA040C17439F80F2
:10A270001E835963A3F820C01A8B22F0080212042F
:10A28000120C42F008021A83F0BD1C68238C23F0E4
:10A2900010031B041B0C2384238CA788268B23F01C
:10A2A00020031B044EEA0C0C1B0C26F4E64643EA82
:10A2B0000C13DFF824C13604360C6445BFB246F4F3
:10A2C000C04603D00CF5806C64450CD123F08003AC
:10A2D0009BB243EA051323F0400327F4406743EAA7
:10A2E000001347EA8207A7802683A1632384238B78
:10A2F00023F400631B041B0C43F400632383C3E7B4
:10A300001C68238C23F480731B041B0C2384238C74
:10A31000A788A68B23F400731B044EEA0C0C1B0CBD
:10A3200026F0730643EA0C23DFF8ACC03604360C83
:10A330006445BFB246F0600603D00CF5806C6445FE
:10A340000CD123F400639BB243EA052323F480631A
:10A3500027F4405743EA002347EA0217A780A68361
:10A36000E1632384A38B23F008031B041B0C43F03D
:10A370000803A38388E71B68174E188C20F48050CD
:10A380000004000C1884188C9D889C8B20F40050CD
:10A3900024F4E64424040004240C000C4EEA0C0EC1
:10A3A000B342ADB244F4C04440EA0E3003D006F5E7
:10A3B0008066B34203D125F4804545EA82159D802D
:10A3C0009C83196418849A8B22F400621204120C84
:10A3D00042F400629A8357E70000014043685A79CB
:10A3E000032A0FD8DFE802F00205080B18683430A2
:10A3F000704718683830704718683C3070471868E4
:10A40000403070470020704710B543681A6858798B
:10A41000084B0344012093F8CC40138CA0409BB21E
:10A4200023EA00031384138CA140194389B21184D9
:10A4300010BD00BFDC710608F0B5EFF311841023E6
:10A4400083F31288C5684668AA68136823F001037D
:10A45000136032687779104E938936F817609BB293
:10A4600023EA060393812A696D681F2A4FF02003AF
:10A4700085BF203A93409340EB6098BFAB60E3B256
:10A4800083F31188C3689B6859601A6842F001021F
:10A490001A6001230374F0BDDC7106080268137DA5
:10A4A000012B04BF0223137592F82C100CBF4FF43C
:10A4B00000730023012904BF022182F82C1092F8B6
:10A4C000441008BF43F48063012904BF022182F8CD
:10A4D000441092F85C1008BF43F4006301290DD1C9
:10A4E000022182F85C1043F4805342681168002214
:10A4F0004A628A8992B213438B8101E0002BF4D126
:10A500007047034B0348D3F80812FEF74FBB00BF58
:10A51000D02B00200000014010B5064C0648D4F8AE
:10A520000812FEF743FBD4F828120448BDE8104097
:10A53000FEF73CBBD02B0020000001400040014052
:10A5400010B5064C0648D4F80812FEF72FFBD4F8D5
:10A550002C120448BDE81040FEF728BBD02B002089
:10A56000000001400044014010B5064C0648D4F8F4
:10A570000812FEF71BFBD4F830120448BDE8104067
:10A58000FEF714BBD02B0020000001400048014022
:10A59000034B4FF08040D3F80C12FEF707BB00BF0F
:10A5A000D02B0020024B0348D3F81012FEF7FEBA5E
:10A5B000D02B002000040040024B0348D3F81412B3
:10A5C000FEF7F4BAD02B002000080040024B0348ED
:10A5D000D3F81812FEF7EABAD02B0020000C004086
:10A5E0000348D0F86C3613B100F5CC6018477047BB
:10A5F000000000200348D0F88C3613B100F5D0607D
:10A6000018477047000000200348D0F8AC3613B15B
:10A6100000F5D46018477047000000200348D0F8C8
:10A62000CC3613B100F5D860184770470000002001
:10A630000348D0F8EC3613B100F5DC6018477047DA
:10A64000000000200348D0F80C3713B100F5E0609B
:10A6500018477047000000200348D0F82C3713B18A
:10A6600000F5E46018477047000000200348D0F868
:10A670004C3713B100F5E860184770470000002020
:10A680000348D0F86C3713B100F5EC6018477047F9
:10A69000000000200348D0F88C3713B100F5F060BB
:10A6A00018477047000000200348D0F8AC3713B1BA
:10A6B00000F5F46018477047000000200348D0F808
:10A6C000CC3713B100F5F860184770470000002040
:10A6D0000348D0F8EC3713B100F5FC601847704719
:10A6E000000000200348D0F80C3813B100F50060DA
:10A6F00018477047000000200348D0F82C3813B1E9
:10A7000000F5026018477047000000200348D0F8A9
:10A710004C3813B100F50460184770470000002062
:10A72000036823F001030360002303604360836038
:10A73000C3600361212343612A4B984203D13D2228
:10A7400043F8082C7047284B984204D14FF47462A8
:10A7500043F8202C7047254B984204D14FF47412D3
:10A7600043F8382C7047224B984204D14FF0746262
:10A7700043F8502C70471F4B984203D11E4A43F8B0
:10A78000642C70471D4B984203D11D4A43F87C2C22
:10A7900070471C4B984203D11B4A43F8942C7047D6
:10A7A0001A4B984204D14FF03D5243F8AC2C17E0BD
:10A7B000174B9842C3D0174B9842C7D0164B9842BC
:10A7C000CCD0164B9842D1D0154B9842D6D0154BD1
:10A7D0009842DAD0144B9842DED0144B9842E2D023
:10A7E000704700BF10600240286002404060024095
:10A7F00058600240706002403D00002088600240C6
:10A80000400F0020A060024000003D20B8600240E0
:10A8100010640240286402404064024058640240D0
:10A820007064024088640240A0640240B864024040
:10A830002DE9F0410022012603250B6806FA02F7F4
:10A8400037EA030334D10368540005FA04FE23EA0F
:10A850000E0303600B79D0F800806FEA0E0C03FA48
:10A8600004FE013B4EEA080E012BC0F800E014D8AC
:10A8700083680CEA030383604B79D0F808C0A340D7
:10A8800043EA0C038360436823EA070343608B7940
:10A89000476893409BB23B434360C36805FA04F7A3
:10A8A00023EA0703C360CB79C768A3403B43C36077
:10A8B0000132102AC1D1BDE8F081204B9A6802F024
:10A8C0000C02042A10B534D0082A34D159685A68C9
:10A8D0005B684902C3F388134CBF1949194902F058
:10A8E0003F02B1FBF2F25343144A5268C2F30142F1
:10A8F00001325200B3FBF2F3104C0360A168124A1C
:10A90000C1F30311114491F86018CB404360A16872
:10A91000C1F38221114491F8601823FA01F181609A
:10A92000A168C1F342310A4492F86028D340C36061
:10A9300010BD034BE0E7034BDEE700BF00380240E9
:10A9400040787D010024F40000000020F0B5446B45
:10A950008668A38923F400531B041B0CA38185790B
:10A96000290201F4806C417901F001038907218AF1
:10A970004FEA053289B221F4405102F4005242EA12
:10A9800001022282A289C5F3800722F4B0524FEA65
:10A9900083034FEA073722F00C0248BF43F0080355
:10A9A0004CEA07011204120C0B431343A381A38A40
:10A9B00023F440731B041B0C85B0A3826846FFF789
:10A9C0007CFF204B9C4203D003F580639C4237D12F
:10A9D000039BA2891921170401FB03F34FF06401C3
:10A9E0004CBF7600B600B3FBF6F3B3FBF1F001FB0E
:10A9F00010330201A08900044BBFDB001B0132337E
:10AA000032334BBFB3FBF1F3B3FBF1F303F00703B6
:10AA100003F00F0313439BB22381A38A2A0755BF78
:10AA200023F008039BB21B0443F0080358BF1B0C20
:10AA3000A382A3899BB243F40053A38105B0F0BD68
:10AA4000029BC6E7001001402DE9F8431E46204B4B
:10AA50009DF820509DF824709842894690462CD14C
:10AA60003B462A4631460020FFF7A4F90446002061
:10AA7000C4E90700C4E90900C4E90B986571A66040
:10AA8000A7712046FFF762FFEA0707D5636B4FF611
:10AA9000DF721A80DA6842F02002DA60626BAB077C
:10AAA00042BFD36843F08003D36093899BB243F4E1
:10AAB000005393812046BDE8F883064B984204D1A9
:10AAC0003B462A4631460120CEE70024F2E700BF8C
:10AAD0000010014000440040816037E7417135E7D4
:10AAE000817133E72DE9F043634F07EBC00985B06F
:10AAF00005464FEAC00899F8740806F0BFFE0646FE
:10AB000099F8750806F0BAFE044699F8760851F0EF
:10AB100027FD6B1CDBB21EB140F60D12F2803372C2
:10AB20001CB140F60D22E280237204223A21304605
:10AB300006F07CFD204604223A2106F077FD07EB63
:10AB40000803D3F870484D4B9C4261D103F5F233B2
:10AB50001A6A42F400121A621A6A22F400121A6285
:10AB6000474497F87738022B6CD0454F454A032B62
:10AB700008BF1746A68826F03F0668463604FFF74A
:10AB80009CFE360C029A404BB2FBF3F398B206439C
:10AB9000A680218821F001010904090C21803B498C
:10ABA0008F4251D1374BB2FBF3F2013091B20429FD
:10ABB00080B238BF04212084A18323889BB243F054
:10ABC00001032380238823F4816323F002031B0401
:10ABD0001B0C43F4806323804FF48043238123883C
:10ABE00023F080031B041B0C238023889BB243F0BB
:10ABF00001032380264B03EB4513012283F84122F6
:10AC0000002283F8405283F8422205B0BDE8F08369
:10AC1000204B9C4209D103F5F0331A6A42F48002BA
:10AC20001A621A6A22F4800299E71B4B9C4297D160
:10AC300003F5EE331A6A42F400021A621A6A22F429
:10AC400000028CE7114F95E707EB4707B2FBF7F2DD
:10AC500091B2C2F30B020AB941F001014FF49672AE
:10AC600053434FF47A72B3FBF2F301339BB241F4D6
:10AC700000412384A0E700BF0000002000540040F2
:10AC800000350C00400D030040420F00A08601007B
:10AC9000D02B002000580040005C00402DE9F04718
:10ACA000BE4D460105EB401909F074FB99F94022AD
:10ACB000BB4B8846D10003EBC2020746D2F870486E
:10ACC00099F84222013A142A00F28380DFE812F058
:10ACD000790089009F00B800C300CD00D600EB00CA
:10ACE000F600FF000A014C0174019A01FD010E02F9
:10ACF0002002290249026D0215005F184FF0090A6F
:10AD000097F8740806F0BAFD044697F8750806F03F
:10AD1000B5FDB5F8A03201339BB207462046A5F831
:10AD2000A03204F09CFD384604F099FD1121204624
:10AD300006F052FC1121384606F04EFC4FF0650833
:10AD400003E00520002109F051FB204604F07EFDC0
:10AD500010B9B8F10108F4D1204606F07DFB0021BE
:10AD6000052009F043FB204604F079FD0520002171
:10AD700009F03CFBBAF1010AE0D1204606F06CFB79
:10AD80000021052009F032FB384606F065FB002162
:10AD9000052009F02BFB204604F061FD0520002171
:10ADA00009F024FB384604F05AFDAB1993F9400230
:10ADB000431C01D0FFF796FEAB19002283F8422214
:10ADC00007E0238813F4007340F0BA81AA1982F8CF
:10ADD0004232AB1993F84232002B7FF465AFBDE8E5
:10ADE000F087238823F400631B041B0C2380238833
:10ADF0009BB243F48063238023889BB243F4807327
:10AE00002380AB19C3E99278032283F84222654973
:10AE10002046FDF7D8F9002800F09281AB1993F88D
:10AE200052225AB993F85322FF2A04D193F85022A0
:10AE30000AB10A22C2E7AB190422BFE70F22BDE71D
:10AE4000AB1993F8512202F0FE022282C3E99278F4
:10AE5000052283F8422254492046FDF7B4F9002820
:10AE600000F06681AB190622A8E7AB1993F85322CC
:10AE70002282C3E99278072283F842224B49204676
:10AE8000FDF7A1F9002800F05381AB19D3F8542243
:10AE90003AB9228892B242F400722280C3E99278D1
:10AEA00004E108228AE723889BB243F4807323805D
:10AEB000AB19C3E99278092283F842223949204626
:10AEC000FDF781F9002800F03B81AB19B1E7AB1920
:10AED00093F8512242F001022282C3E992780B22B8
:10AEE00083F8422232492046FDF76DF9002800F030
:10AEF0001F81AB19D3F85432012B1AD1238823F4C4
:10AF000080631B041B0C2380EFF31182102383F357
:10AF10001288238B23889BB243F400732380D3B21F
:10AF200083F311880C22AB19C3E9927883F842228B
:10AF30004FE7022B15D123889BB243F40063238093
:10AF4000EFF31182102383F31288238B238823F4D9
:10AF500080631B041B0C2380D3B283F311880D2262
:10AF6000E1E7238B0E22DEE712492046FDF735F993
:10AF7000002800F0E580AB19D3F85822511CC3F823
:10AF80005812218A1170D3F85422013AC3F854227E
:10AF90000122C3E9927883F85C220FE7D02B0020CE
:10AFA0000000002001000300820007008400070069
:10AFB000020003004000001081492046FDF70DF912
:10AFC000002800F0BD80EFF31182102383F3128874
:10AFD00023889BB243F400732380AB19D2B2D3F819
:10AFE0005812481CC3F85802208A087082F311884E
:10AFF000D3F85822511CC3F85812218A11706FF0EF
:10B000000102C3E76E492046FDF7E7F8002800F08B
:10B010009780AB1903F51271D3F85422032A30D16B
:10B02000228822F480621204120C2280EFF3118035
:10B03000102282F31288D3F8582202F1010CC3F8CF
:10B0400058C2B4F810C082F800C0228892B242F40C
:10B0500000722280C2B282F31188D3F85822501CA9
:10B06000C3F85802208A1070D3F85422023AC3F869
:10B0700054220C2283F84222C3F84872C1F804809B
:10B08000A7E6022A14D8228822F480621204120C45
:10B090002280228892B242F400722280228AC3F86F
:10B0A0004872002283F85C22C1F80480012285E600
:10B0B000D3F85822501CC3F85802208A1070D3F8D5
:10B0C0005422013AC3F85422D6E7238823F480633C
:10B0D0001B041B0C2380AB1993F8512202F0FE02D3
:10B0E0002282C3E99278102283F842223549204611
:10B0F000FDF769F8E0B1AB1993F85322FF2A04D1A8
:10B1000093F850220AB1132258E6AB19112255E6E2
:10B11000AB1993F853222282C3E99278122283F862
:10B12000422229492046FDF74EF808B1AB19EAE75B
:10B1300026492046FDF751F810B1AB1914223DE61F
:10B14000A919D1E9922342F21070BA1A68EB0303ED
:10B15000824273F10003FFF43CAE152381F84232C2
:10B1600037E6AB1903F51270D3F8542282B1D3F845
:10B170005812013A11F801CBA4F810C0C3F85422B8
:10B18000C3F84872C3F85812C0F80480122215E6BA
:10B19000228892B242F4007222800122C3F84872DF
:10B1A00083F85C22C0F8048008E623889BB243F44D
:10B1B000007323804FF6FF33A382AB196EE600BF06
:10B1C0000400001082000700840007000004001043
:10B1D00038B5114C04EB401494F84152D5B1C4F881
:10B1E0005432049BC4F85832002384F85C320223A2
:10B1F000490084F8532284F8423201229DF8143029
:10B2000084F8511284F8522284F85032FFF746FD38
:10B2100094F85C52284638BDD02B002038B5114C2C
:10B2200004EB401494F84152CDB1C4F85432049B5D
:10B23000C4F858320223490084F8532284F8423279
:10B2400000229DF8143084F8511284F8522284F8B8
:10B250005C2284F85032FFF721FD94F85C522846B6
:10B2600038BD00BFD02B002082B000230193054BD6
:10B270000193019B03EB80000190019B196002B0D8
:10B28000704700BF5028004082B000230193054B57
:10B290000193019B03EB80000190019B186802B0B1
:10B2A000704700BF5028004010B51C2006F0E6FA99
:10B2B0001121044606F090F9204606F0CDF8C8208A
:10B2C00009F0A4F82046BDE8104004F0C8BA436D68
:10B2D000064A1A61C278012A06D100F2CC505861A0
:10B2E0001A684FF080221A60704700BF180008608B
:10B2F00038B5044600296FD190F81131022B2AD1BC
:10B30000D0F83821D0F824118A4232D9C378012BE1
:10B3100004BFD0F828315B18A2EB010208BFC0F8C7
:10B3200028314FF48071D0F82831C0F83821002539
:10B3300092B2A0F81C11C0F82C31C0F83451C0F8FA
:10B34000302100F58E7152F0FDFF2B462A4629462A
:10B35000204653F00DF994F81631012B07D1244AF9
:10B360002369D2F884215A60002384F81631002022
:10B3700038BDD0F83C31B3FBF1F501FB1535A5B96B
:10B38000994212D8D0F8402193420ED24FF48073E4
:10B39000C0E94A55C0E94C55A0F81C3100F58E7142
:10B3A00052F0D0FFC4F84051CFE7D4F8E435DB6861
:10B3B0002BB194F81221032A01D120469847052386
:10B3C00084F81131002320461A46194653F0D0F86C
:10B3D0002046FFF77CFFBEE7D0F8E4355B69002B21
:10B3E000C5D090F81221032AC1D19847BFE700BF0A
:10B3F000D02B002070477047704710B50F4C94F861
:10B40000AE32B3B14FF0E022D2F8103D23F0060384
:10B41000C2F8103DFEF707FCD4F8B4329B68DB0796
:10B4200007D5D4F8B023136823F0030161F30703B1
:10B430001360034B4FF480225A6110BDD02B0020C3
:10B44000003C01402DE9F04FAF4CD4F8B0325A69BE
:10B45000D0078DB000F1AC815A699B69134001930C
:10B4600000F0A681C3F307430293019B190311D592
:10B47000D4F8B432DFF898929E69DB6904F5297735
:10B480001E40360C04F53E7B4FF00008BA46002EF5
:10B4900040F09181029B5A070FD5D4F8B4329B4DEE
:10B4A0009E69DB691E40B6B205F118074FF000092E
:10B4B000A5F52978002E40F0C681019B9DF8047007
:10B4C000980741BF904BD3F8B03202225A61019BDA
:10B4D000002B1BDA8C4D95F8AE323BB1D5F8B0237A
:10B4E000136823F0030161F307031360D5F8B42256
:10B4F0008648536823F001035360854BD3F8A03886
:10B500009847D5F8B0324FF000425A61019B1905B7
:10B51000C3F3072631D57C4D00238DF81F3095F8F5
:10B52000B6338DF81F307A4B05F52970D3F89C3867
:10B530009847D5F8B022D5F8B4324FF400619B6833
:10B54000516195F8AE22C2B1DA0716D595F8B93334
:10B55000012B12D19DF81F30032B0ED1D5F8B0333B
:10B560001A6842F001021A601A6842F003021A6077
:10B57000684A136943F0060313613B070AD5624D1D
:10B58000634B05F52970D3F894389847D5F8B03255
:10B5900008225A61FD0615D55B4BD3F8B0028269CB
:10B5A00022F010028261026AC2F34341022902F0D2
:10B5B0000F0500F00482062900F02882836943F019
:10B5C00010038361F00637D54F4DD5F8B422D5F876
:10B5D000B0025368002723F001035360394652F04C
:10B5E000FBFFB84695F8A5023B4605F52F75FF21F0
:10B5F0008342C0F01982D4F8B43244484FF0FF328D
:10B600009A614FF00112DA610B2262F3070762F3CD
:10B6100007085F61C3F810801A686FF30A121A6096
:10B62000FFF755FED4F8B03238484FF480525A61D3
:10B63000374BD3F898389847B10640F19B80324C8D
:10B64000D4F8B462D4F8BC22B3681168C3F34103E0
:10B65000022B0CBF0323002363F30A0111607368FC
:10B6600043F48073736008A8FFF727F9D4F8B00299
:10B67000294BC568099A6FF38D25C560B168C1F380
:10B6800041010B4493F81031032B00F0D481234B7C
:10B69000234913448B4240F2D3812249A2F574031B
:10B6A000A3F510538B4240F2CF811F4B1F49134427
:10B6B0008B42C0F0CD811E49A2F18C73A3F54343A8
:10B6C0008B4240F2C9811B4B1B4913448B42C0F093
:10B6D000C7811A4B1A4913448B42C0F0C5811949DE
:10B6E000A2F1B773A3F558538B42C0F0C081164B3B
:10B6F000164913448B42C0F0C581154B154E1344B7
:10B700000121402228E000BFD02B0020742E002011
:10B710000000002000ED00E0DC710608401E1BFF69
:10B720003F420F00DFC810002013FBFE20D613009D
:10B73000FF69180000D3CEFE40771B00C05BB3FE4C
:10B74000C091210040AC2700C01D6AFE40E13300DB
:10B75000803C36FEE09C4100B3422CBF052306230B
:10B7600063F38D254FF40053C56084F8A612A4F846
:10B77000A8224361029BDA060BD5BF4CBF4B04F5F0
:10B780002970D3F8A4389847D4F8B0324FF4801217
:10B790005A61029B9B060BD5B74CB84B04F5297038
:10B7A000D3F8A8389847D4F8B0324FF400125A6151
:10B7B0000DB0BDE8F08FF2073ED55FFA88F104EBDB
:10B7C0008103D3F8F8329D68D4F8B4325B691D4028
:10B7D000EB0721D594F8A702DBF800300125A84239
:10B7E0009D6007D11869D7F87C33C0F312001B1A8B
:10B7F000C7F88C33D9F888385046984794F8A73260
:10B80000012B09D1B8F1000F06D194F8B533052BFF
:10B8100002D15046FFF75BFDA80742BFDBF80030BE
:10B8200002259D60290707D5D9F8903850469847DA
:10B83000DBF8003008229A6008F1010876080BF165
:10B84000040B283723E6F30779D5D8F8B4325FFA2A
:10B8500089FA1969586B08EB8A0220FA0AFBD2F8B8
:10B86000BC224FEACB1B92685FFA8BFB4BEA010BC1
:10B870000BEA020B1BF0010F1ED05A6B80484FF0F1
:10B88000010B0BFA09F122EA01025A633B68C3F883
:10B8900008B07A4B5146D3F88C38984798F8A732BD
:10B8A0005B4509D1B9F1000F06D198F8B533042BE7
:10B8B00002D17348FFF70BFD1BF0080F1EBF3B685A
:10B8C0004FF0080BC3F808B01BF0100F1EBF3B6809
:10B8D0004FF0100BC3F808B01BF0400F1EBF3B68C1
:10B8E0004FF0400BC3F808B01BF0020F1EBF3B68BF
:10B8F0004FF0020BC3F808B01BF0800F1FD0D5E942
:10B900004C329B1AD5F82421D7F800E098F8A7B25A
:10B91000DEF81800934228BF13460333D8F8B42248
:10B9200003929B080AF1320A049308EB8A0A049BEB
:10B9300080B2984203D9D5E94C03984205D809F161
:10B940000109760828350437B4E5C01AD5F8243142
:10B95000984228BF1846C31C9B080493BBF1000FF4
:10B960001BD0D5F82811D5F834210144C5F8281189
:10B97000D5F8301102448A42DEF81800C5F83421A7
:10B98000D5D1039B95F81C115A6B012303FA01F1E1
:10B99000039B22EA01025A63C9E782B2DAF8AC12C9
:10B9A000D5F828C10332931005930A465946059BE2
:10B9B0008B42D6D05CF8213013600131F7E747F6AF
:10B9C000F07111423FF4FAAD282101FB0531C2F3B9
:10B9D0000A12D71CD3F874E3D1F824C6BF10002193
:10B9E0008F420DD1282101FB0533D3F824161144D1
:10B9F000C3F82416D3F830161144C3F83016DDE529
:10BA0000DEF800804CF821800131E9E7D3F87413A7
:10BA10000F68C3F870780968C3F87418282101FB0F
:10BA20000533C2F30A12E5E755F8042B9160AA6BBF
:10BA300001339160DCE500214FF4007209238FE6A9
:10BA4000012140220E238BE6012140220D2387E6AF
:10BA5000012140220C2383E6012140220B237FE6B3
:10BA6000012140220A237BE601214022E6E7012151
:10BA70004022082374E600BFD02B002000000020E5
:10BA8000742E002001214022072369E670B5124D73
:10BA9000124BC5F8983840F20112002385F8F431B2
:10BAA000A0F84421C0F85C3105F698020D23C0E9E6
:10BAB0005422044685F8A418C0F8583100F5A27144
:10BAC00052F0BDFC05F5EA7220461F23BDE8704028
:10BAD000012152F04DBD00BFD02B002055534253E1
:10BAE00010B5074B93F8E11104464FF09FFE002874
:10BAF00004DA20460121BDE81040C7E710BD00BFB1
:10BB0000D02B0020F7B50B7813F0600406460D46E5
:10BB100039D0202C76D14A78FE2A05D0FF2A1CD0B5
:10BB200050F0B0F802242BE04C88A4B9CF88012F44
:10BB300011D11A060FD5344DD5F800329B699847BC
:10BB4000C0B285F8A80830B13A4605F6A8013046DB
:10BB500052F04AFC14E03046E2E74A88002AFAD163
:10BB6000CC88002CF7D11B06F5D4274A012182F896
:10BB7000F44182F8D0111F2302F5EA7252F0F8FC6A
:10BB8000204603B0F0BD4B780A2B27D00B2B28D0D2
:10BB9000012BF5D195F904308988C068002B25DA8E
:10BBA00001F07F0152F018FDAF88297901913046EC
:10BBB0007DB2154F52F056FB0223019940223046C8
:10BBC00052F079FB97F8D031022B12D18121304607
:10BBD00052F016FB002387F8D031D1E70B49012240
:10BBE000B6E7094B4A8883F8A928C9E752F0DEFC7A
:10BBF000DAE7002DC4DA012BC2D001213046FFF76D
:10BC000045FFBDE70024BBE7D02B0020793400209E
:10BC100008B5084B93F8F431022B07D0033B012BF6
:10BC200002D80021FFF732FF002008BDFFF758FFC0
:10BC3000FAE700BFD02B002070B52F4C94F8F461C8
:10BC400005461EB1012E54D0002070BDD4F8D83165
:10BC5000C4F89C38D4F8DC31C4F8A038B0F8B43358
:10BC60001F2B0DD1D4F8D421244B9A4208D194F83B
:10BC7000E111012904D894F8E231013B0F2B0AD9D4
:10BC8000202105204FF0BCFD022384F8D031284646
:10BC9000FDF7D2FAD8E74FF0C9FD0028F7DB94F89A
:10BCA000F431013B022BCFD9B4F8AA18E9B1D4F88A
:10BCB000DC3184F8A468994228BF1946D4F8A0382A
:10BCC0005B1AC4F8A038042384F8F43140F201135D
:10BCD000A5F844310A4BC5E95616C5E9543305F5B4
:10BCE000A271284652F0ABFBAEE72846FFF7CEFE26
:10BCF000AAE7FFF7F5FEA7E7D02B002055534243F4
:10BD00001C630020F0B59C0827010E46154600EB89
:10BD10000414A04206F1100605F1100508D103F045
:10BD2000030339443A4404EB83039C4223D1F0BD1E
:10BD300084469CED006A16ED045AD0ED016A56ED7A
:10BD4000037A90ED027A56ED025A26EE056A66EE07
:10BD5000A76AD0ED037A05ED046A16ED016A45ED98
:10BD6000036A27EE257A67EE867A103005ED027AAF
:10BD700045ED017ACDE7F4EC017AB1EC017A67EE9A
:10BD8000877AE2EC017AD0E74A09012350F82220B1
:10BD900001F01F018B40134214BF012000207047A7
:10BDA00010B54C09012250F8243001F01F018A40DF
:10BDB000134340F8243010BD30B54D09024400EB68
:10BDC0008504A2424FF0FF3323D901F01F018B40BD
:10BDD00050F825100B4093FAA3F3B3FA83F3DBB2C8
:10BDE000202B02D003EB451030BD211D91420C46A3
:10BDF00002D34FF0FF30F7E72368043193FAA3F33F
:10BE0000B3FA83F3DBB2202BF0D0241A03EBC40087
:10BE1000EAE71846E8E780EA0120082341F2210218
:10BE200010F4004F4FEA400018BF5040013B80B271
:10BE3000F6D1704738B50C468D18AC4200D138BDEC
:10BE400014F8011BFFF7E7FFF7E74840082310F05D
:10BE5000800F4FEA400018BF80F0D500013BC0B210
:10BE6000F5D1704710B50A440C46944200D110BD7C
:10BE700014F8011BFFF7E9FFF7E738B50A46056834
:10BE800004460020AA4203D36B1C2360287038BDEF
:10BE900012F8011BFFF7D9FFF4E7DFED0A7AC0EDD6
:10BEA000020A20EE270AB7EE007AC7EE007A0023D6
:10BEB0000360C0ED017A70EEA77A80EEA77A80ED7C
:10BEC000037A7047DB0FC94090ED017AD0ED007A1C
:10BED000C0ED020A30EE877AC0EE876A30EE677AEC
:10BEE000E6EE877AB0EE670AC0ED007A704701236C
:10BEF00003700023C3648364036503644364436580
:10BF0000836283657047DFED167A80ED010AF4EEF7
:10BF1000E70AF1EE10FAC0ED020A80ED031AC0ED57
:10BF2000051A15DDB4EEE70AF1EE10FA15DDC1EEE3
:10BF3000007A80EE207AF0EE006A37EE277AC6EEBD
:10BF4000877AC0ED047A80ED0F2AC0ED0E2ACEE785
:10BF5000DFED047AC0ED027AF3E7DFED027AF0E775
:10BF6000BD378635000000000F2913B5A8BF0F218B
:10BF70000129B8BF01214A00816001320021044635
:10BF80000260416092008030019259F065F9019A97
:10BF9000002104F5807002B0BDE8104059F05CB992
:10BFA000FDEEC07A17EE903A2033402B43D8DFEDF8
:10BFB000237A9FED237AB4EEE70AF1EE10FA28DC3B
:10BFC000DFED207A9FED1E7AB4EEE70AF1EE10FA6B
:10BFD00022D4DFED1D7AB4EEE70AF1EE10FA1EDD91
:10BFE00030EE670A37EEC00A60EE007ADFED176ABE
:10BFF0009FED177AA7EEA67ADFED166AE7EE876A5D
:10C000009FED157AA7EEA67A20EE276AA6EE070A1C
:10C01000704730EE470ACEE730EE070AD4E79FEDCF
:10C020000F7AB4EEC70AF1EE10FA44BF30EE270AD9
:10C0300037EE400AD8E79FED0A0A7047DB0F494008
:10C04000DB0FC940DB0F49C0DB0FC93F9A7C2E369E
:10C05000FAAF4FB93587083CA4AA2ABEDB0FC9BF87
:10C0600000000000DFED027A30EE270A98E700BFFB
:10C07000DB0FC93F10B51C46334BB3FBF2F39942BB
:10C080009FED325AF0EE404AF7EE005A53D207EED7
:10C09000901A9FED2F7ADFED2F6AF8EE677AF8EEAF
:10C0A000002A67EE877A07EE102AB8EE477A27EE65
:10C0B000267AC5EE876A87EEA64AB0EE440AFFF7F5
:10C0C0006FFFF0EE403AB0EE440AFFF7CBFF74EE9C
:10C0D000A44A012C83EEA43A1CBF35EEC04AF6EE0A
:10C0E000006A33EE257A12BF64EE266AF0EE656AC6
:10C0F00020EE224A86EE876AC4EE074A60EE227A74
:10C1000075EEC35AC7EE876AC5EE877AF0EE465AD7
:10C11000C0ED005AC0ED014A80ED026AC0ED036A2D
:10C12000C0ED047A80ED065A80ED055A80ED085A7C
:10C1300080ED075A10BDF0EE454AB0EE456AF0EECC
:10C14000456AF0EE457AE3E720A107000000000011
:10C15000DB0FC940BD378635F0EEE06AB0EEC07A3D
:10C16000F4EEC76AF1EE10FAD4BFB0EE476AB0EE53
:10C17000666AB5EE406AF1EE10FA48D0F4EEC76A8E
:10C18000F1EE10FA54BFF0EE475AF0EE665AC5EEE3
:10C19000867A9FED206ADFED205A9FED205AE7EE68
:10C1A000865A9FED1F6AA5EEA76ADFED1E5AE6EEDE
:10C1B000275A9FED1D6AA5EEA76ADFED1C5AA7EE70
:10C1C000A55AF7EE005AE5EE275AB1EE466AC6EEDA
:10C1D000257AF4EEC76AF1EE10FA48BF9FED147AA3
:10C1E000F5EEC00A48BF77EE677AF1EE10FA48BF65
:10C1F0009FED107AB5EEC00A48BF77EE677AF1EE90
:10C2000010FA48BFF1EE677AB0EE670A7047DFEDCB
:10C210000A7ABEE739094E3DE3B59EBE69A2163ED5
:10C2200088FA16BE45FE7FBFA7DFA8B499FB243F5E
:10C23000DB0FC93FDB0F49400000000044F25063B0
:10C24000984203DDA0F50C40A0387047034B98429C
:10C25000BCBF00F50C40A030704700BFB0B9FFFF75
:10C2600048F69F43984203DDA0F50C40A038704784
:10C270000028BCBF00F50C40A030704791ED005A7B
:10C2800008B5B0EE450AFFF7EDFEF0EE405AB0EE0D
:10C29000450AFFF785FE91ED015AF0EE404AB0EEF7
:10C2A000450AFFF7DFFEF0EE403AB0EE450AFFF731
:10C2B00077FE91ED023AB0EE405AB0EE430AFFF736
:10C2C000D1FEB0EE404AB0EE430AFFF769FE25EE1C
:10C2D000806A63EEC07A24EE847AC0ED017AF0EED3
:10C2E000467AE5EE077A25EE843A64EE806AC0ED80
:10C2F000037AF0EE437AE5EE667AA5EE067AE5EE8D
:10C30000436A23EE844A64EEE34A25EEA30A80EDF5
:10C31000004A80ED025AC0ED047AC0ED054AC0ED36
:10C32000066A80ED077A80ED080A08BD034600F131
:10C33000400100221A615A619A61DA611033994210
:10C34000F8D11022002158F087BF91ED007AD0ED8E
:10C35000047AE7EE077AC0ED047AD1ED006A91ED38
:10C36000017AD0ED057AE6EE877AC0ED057AD1ED57
:10C37000006A91ED027AD0ED067AE6EE877AC0ED9A
:10C38000067A91ED007AD0ED077A77EE877AC0EDE4
:10C39000077AD1ED016A91ED007AD0ED087AE6EEE8
:10C3A000877AC0ED087A91ED017AD0ED097AE7EE4F
:10C3B000077AC0ED097AD1ED016A91ED027AD0EDEC
:10C3C0000A7AE6EE877AC0ED0A7A91ED017AD0ED2D
:10C3D0000B7A77EE877AC0ED0B7A91ED007AD1ED8A
:10C3E000026AD0ED0C7AE6EE877AC0ED0C7AD1EDD8
:10C3F000026A91ED017AD0ED0D7AE6EE877AC0ED12
:10C400000D7A91ED027AD0ED0E7AE7EE077AC0ED63
:10C410000E7A91ED027AD0ED0F7A77EE877AC0ED41
:10C420000F7A91ED007AD0ED107A77EE877AC0ED31
:10C43000107A91ED017AD0ED117A77EE877AC0ED1E
:10C44000117A91ED027AD0ED127A77EE877AB7EE13
:10C45000007AC0ED127AD0ED137A77EE877AC0EDCC
:10C46000137AD1ED017AD1ED006A91ED027A67EE8F
:10C47000A77AE6EEA67AE7EE077A90ED007AA6EEC6
:10C48000A77A80ED007AD1ED016A90ED017AA6EEEF
:10C49000A77A80ED017AD1ED026A90ED027AA6EEDC
:10C4A000A77A80ED027A90ED037A77EE277AC0EDD5
:10C4B000037A70472DE9F043034685B000F1100779
:10C4C000054600261C46AC4612E0F8EC016A1EED5B
:10C4D000047AD4ED007AE6EEC77AC4ED007A984586
:10C4E0000EF1100EF1D10434BC420CF1040C03D057
:10C4F000A7F11008E646F2E701361C46B646BEF143
:10C50000040F1DD000EB0E1CA84604F1100907E033
:10C51000FCEC016A18ED047AE6EEC77AC4ED047A01
:10C52000CC45D4ED047A08F11008F1D1D3ED006ABE
:10C5300087EEA67A0EF1010E84ED047A6446DEE7FA
:10C54000042E03F1140305F1040507F11007B9D116
:10C55000002300930193029303936C460023142756
:10C56000F2EC017A00EB031507FB030C6E46654500
:10C57000C4ED007A1FD10133042B04F10404EFD180
:10C5800004AD103100F1400275ED017A00EB0317A4
:10C590000E461446BC4241ED017A13D152ED016AB8
:10C5A00087EEA67A013BA2F1140221ED017AEBD1CC
:10C5B00005B0BDE8F083F5EC016AB6EC017AE6EE71
:10C5C000C77AD4E7F4EC016AB6EC017AE6EEC77AF2
:10C5D000E0E79FED0C7A00F10C03F0EC017AF4EE49
:10C5E000677AF1EE10FA06D7F0EEE77AF4EE477AC2
:10C5F000F1EE10FA03DC9842EFD1012070470020E1
:10C60000704700BFFFFF7F7F1FB50C46024669469B
:10C610001030FFF74FFFDDED007AB6EE007A67EEDF
:10C62000877A2046C4ED007ADDED017A67EE877ADD
:10C63000C4ED017ADDED027A67EE877AC4ED027A05
:10C64000FFF7C7FF04B010BDF7B510EE100A10EEEB
:10C65000904A52F0BBFA02460B462046CDE9002331
:10C6600052F0B4FADDE9002304460D46104619469F
:10C6700052F004FB2246064601F100472B462046B5
:10C68000294652F0FBFA02460B4652F041F90246A7
:10C690000B463046394652F01BFC41EC100B53F070
:10C6A000BBFC51EC100B52F0E1FD00EE100A03B0A0
:10C6B000F0BDB5EEC00AF1EE10FA08B506DB53F096
:10C6C0005BFDB4EE400AF1EE10FA01D79FED010ACE
:10C6D00008BD00BF000000002DE9F0412DED028BE8
:10C6E000044626461C3004F1640250ED017AB1EC98
:10C6F000010A77EE807A40ED017AFCF74BF91830A9
:10C700009042F2D12E4F6268D7F8743125699B1A96
:10C71000A2680135934225612DD99FED2A8A04F143
:10C720003008F36A012BC1BF03F1FF3307EE903AE3
:10C7300096ED0A7AF8EEE77AD4BFB0EE480A87EEB3
:10C74000270AFFF7B6FF4645D4ED057A17D0F4EE79
:10C75000C07AF1EE10FA06F11806E2D5237B5BBB36
:10C76000D7F87421626000222361A261E362226330
:10C770006364A264E365BDEC028BBDE8F081F4EE76
:10C78000C07AF1EE10FAE9D407EE905AD4ED066AB9
:10C79000F8EE677A022386EEA77AD4ED0C6A84ED70
:10C7A000067A86EEA77AD4ED126A84ED0C7A86EECC
:10C7B000A77A84ED127A00E003232370DBE700BF41
:10C7C000D02B00200000000070B52DED028B037807
:10C7D000012B04463CD10569254E25B9426812B9A2
:10C7E000D6F87421426094ED068A30EE088A01354D
:10C7F00084ED068A256104F11C00FCF7CBF8626821
:10C80000D6F874319B1AA268934221D9E36A012BAE
:10C81000C3BF03F1FF3307EE903A94ED0A7A9FED20
:10C82000150AC4BFF8EEE77A87EE270AFFF741FF43
:10C83000D4ED057AF4EEC07AF1EE10FA0ED5237B32
:10C840004BB9D6F87421626000222361A261E362D1
:10C85000BDEC028B70BD03232370F9E707EE905AFD
:10C86000F8EE677A022388EE277A84ED067AF3E7FA
:10C87000D02B00200000000008B52DED028BF0EE5B
:10C88000C08AB0EE408AB7EE000A30EE680AFFF7C1
:10C8900010FF9FED0E7ADFED0E7AE8EE877A9FEDBE
:10C8A0000D7AA7EEA87ADFED0C7AE7EE287AB5EEDE
:10C8B000C08ABDEC028BF1EE10FA20EE270A44BFCD
:10C8C000DFED067A37EEC00A08BD00BF306E99BCB6
:10C8D0002716983D843459BEA40DC93FDB0F49404B
:10C8E00060EEA00AE0EE000AB0EE600AE1E660EE5B
:10C8F000A00AE0EE000AE1EE010AB0EE600AD8E616
:10C900002DE9F74F90469DF83020002A14BF4FF0D4
:10C9100030094FF020090D9A1C1E05460F46BABF7C
:10C9200064420123002312F8011B01B12CB9A24675
:10C9300063B100240D9EA41B12E0013CF3E7BD424D
:10C9400004D2494628460193C047019BBAF1010A27
:10C95000F5D2EFE7BD4203D228460193C047019BC1
:10C9600006EB040B16F8011B0029F3D133B1544632
:10C97000002C07DCBAF1000FA8BFD344584603B01F
:10C98000BDE8F08FBD4202D249462846C047013C6F
:10C99000EEE70FB437B50C4D06ABD5F8481A53F88F
:10C9A000042BD5F8440A01934FF06EFC0446D5F8E9
:10C9B000040207F012FC0028F9D0204603B0BDE8BD
:10C9C000304004B0704700BFD02B00200EB403B538
:10C9D00003AB084953F8042BCDE9003001A84FF010
:10C9E00053FC019B00221A7002B05DF804EB03B007
:10C9F000704700BFE98900080CB430B52C4CD4F85E
:10CA00004C3AA5B01BB9D4F8503A002B39D094F861
:10CA1000543A994206D9012303FA00F0D4F8583A5F
:10CA200018422ED0D4F874114FF47A7304A8B1FBD5
:10CA3000F3F203FB12131F49FFF7C8FF04AB0344D3
:10CA4000289A1D490393054629AB03A802934FF08A
:10CA50001BFC039B591C03910A211970039B591C51
:10CA60000391002119700246D4F84C0A90B1036872
:10CA70005B6A03B19847D4F84C5A04AC14F8011B14
:10CA800021B925B0BDE8304002B07047284607F014
:10CA90003FFBF3E7D4F8503A002BF2D015440222C2
:10CAA000009204A9AA18FD2029F0A6FCE9E700BF1E
:10CAB000D02B00204B2107080D870008184A38B5F5
:10CAC000D2F85C5A033005EB9003B3F5007F19D818
:10CAD00002F52664C2F85C3A124A02EB810120F0AA
:10CAE0000300D1F86821C3F500730244C1F868213E
:10CAF0009B000D4A0421002004EB8504FFF77CFF16
:10CB0000204638BD0021094A0846FFF775FF084A4C
:10CB1000D2F8A43043F00073C2F8A4300024EFE749
:10CB2000D02B0020C83C0020572107087B21070894
:10CB3000C88201202DE9F84F0268DFF8A48006467C
:10CB4000002358F833108A420BD1DDB20D2D0CD9D9
:10CB5000204A00210520FFF74FFF00242046BDE8B2
:10CB6000F88F01330E2BECD1F2E71B4F07EB850A50
:10CB70004FEA8509DAF808B2BBF1000F1AD1082193
:10CB80006420FFF79BFF0446CAF8080228B9014653
:10CB9000124A0520FFF730FFE0E76422594658F0BB
:10CBA0005BFBDAF8083208EBC505C3E90053DB612B
:10CBB0005B63DB644F447179D7F80842182000FBAF
:10CBC000014300221C46C3E903229E601A75043407
:10CBD000C4E700BF89210708D02B0020AE21070839
:10CBE0003872060803685A1C026019700368090A43
:10CBF0005A1C02601970704703685A1C0260197051
:10CC000003685A1C02600A0A1A7003685A1C026000
:10CC10000A0C1A700368090E5A1C026019707047DA
:10CC200038B504460068154656F0A6F923682B442B
:10CC3000236038BD03685A1C026018787047036887
:10CC40005A1C02601A4612F8021B0260587841EA28
:10CC500000207047036810B55A1C02601A4612F88B
:10CC6000021B0260DA1C5C7802609A78120442EAC5
:10CC700004221C1D0460DB7841EA0360104310BDF0
:10CC8000D1E900329A4206D05A1C0A6008B11B78DA
:10CC900003700120704700207047D1E900239B1AE0
:10CCA000012B10B50446084604DDFFF7C8FF2080BD
:10CCB000012010BD0020FCE738B5054600242846B9
:10CCC00051F018FEA04200D838BD2B5DA3F16102DF
:10CCD000192A9CBF203B2B550134F0E730B50A449C
:10CCE000914201D1002311E010F8013BA3F141046E
:10CCF000192C11F8014BA4F1410598BF2033192DCF
:10CD000098BF20341B1B01D1002CE9D1184630BD3F
:10CD10006FF00042E2E710B50288C378A2F5FA622C
:10CD2000910840F2B554013B04FB013381780C2497
:10CD3000013902F0030204FB02120D49847901EB70
:10CD400042021821B2F822211344027901FB032385
:10CD5000427900893C2101FB0322064B234401FB5D
:10CD600002334FF47A720021C3FB020110BD00BFF1
:10CD7000DC71060880436D38F8B519460446002377
:10CD800010464FF47A7252F0A5FC244B3C25034424
:10CD900093FBF5F005FB103390FBF5F105FB11005B
:10CDA00060711820A37191FBF0F300FB131140F2A6
:10CDB000B550217193FBF0F100FB1133B3F5896F8E
:10CDC0004FEA810526DA40F2DA218B4224DCB3F502
:10CDD000B77FB4BF00200120114E182101FB00666F
:10CDE0000B2136F811709F4201DD0139F9D105F5AB
:10CDF000FA65054425804D1CA5700C2505FB001126
:10CE00000848228100EB41010133B1F822115B1A7D
:10CE1000E370F8BD0320DFE70220DDE780BC92C7A6
:10CE2000FE720608DC710608F0B5274D06460F466F
:10CE30000FCD8DB06C460FC40FCD0FC495E80F0019
:10CE400084E80F0016F0030339D1642196FBF1F258
:10CE500001FB126242B94FF4C87296FBF2F302FB77
:10CE60001363003B18BF0123721EC3F11D03002A88
:10CE7000019340F26D13114606FB03F3B8BFB11CDA
:10CE800003EBA1036FF0630192FBF1F10B444FF44C
:10CE9000C87192FBF1F2134406336C46002107255A
:10CEA000013F54F8040B8F42034493FBF5F2C2EBAD
:10CEB000C202A3EB020304D1C01A0DB0F0BD0123DE
:10CEC000D2E70131EDE700BF60730608084BD3E9F4
:10CED0007E1251EA020309D0064BD3F874315B1875
:10CEE00042F10002C0E90032012070470020704783
:10CEF000C83C0020D02B002037B505466846FFF718
:10CF0000E5FF044638B1DDE900232846FFF734FF8A
:10CF1000204603B030BD40F2011328806B80A8800A
:10CF2000A8712881F4E71FB50190FFF7E5FF01998B
:10CF3000044648B1064B0DF10E02B3F80032ADF8CD
:10CF40000E3008464CF0DEFB204604B010BD00BF9A
:10CF5000C83C0020F0B50124B0FBF4F58D4203D2AB
:10CF600000261CB91C70F0BD4C43F5E7B0FBF4F58E
:10CF7000B4FBF1F704FB15002EB9002D03DC8C4245
:10CF80000CD33C46EDE7092D08DD002A14BF3724F9
:10CF900057242C4403F8014B0136F2E73024F8E71C
:10CFA000A0F13003DAB2092A01D818467047A0F17F
:10CFB0006103052B01D857387047A0F14103052BB9
:10CFC00094BF37384FF0FF30704770B50446944235
:10CFD00008461546B4FBF2F602D33046FFF7F5FFDC
:10CFE00005FB1642024B9B5C00F8013B70BD00BF85
:10CFF000C8210708B5EEC00ADFED2D7AF1EE10FA70
:10D00000CCBF30EE270A30EE670ADFED2A7A20EE39
:10D01000270A30B5FDEEC07A87B017EE904A054674
:10D0200084EAE470002303A9A0EBE470CDE90033A7
:10D0300002934FF0B7FA002CACBF20232D2303A896
:10D040008DF8003051F056FC012822D130238DF8A4
:10D05000013043F23003ADF8023003A9684658F0BE
:10D06000E3FF684651F046FC0338C4B222466946E5
:10D07000284655F081FF00232B550F49284658F0CC
:10D08000D3FF0DEB0401284658F0CEFF284607B029
:10D0900030BD022805D130238DF801308DF80230E3
:10D0A000DBE7032804BF30238DF80130D5E700BF4C
:10D0B0006F12033A00007A44C752070830B502786D
:10D0C000202A034600F10100F9D0092AF7D02D2AC1
:10D0D0004BD10346BFEE000A9FED3C7A1A46F2EEB2
:10D0E000046A134612F8010BA0F13001CCB2092CEE
:10D0F00041D92E280BD1F2EE046A1146B0EE666AD1
:10D100000B4611F8012B303AD0B209283CD91A78D5
:10D1100002F0DF02452A53D15A782D2A3FD102333B
:10D120000120013B00220A2513F8011F3039CCB23F
:10D13000092C3AD9B2F59A7F1346DFED256A28BF4C
:10D140004FF49A731A46F7EE007A072A30D8DA08B5
:10D150006FF0070101FB0233F2EE046A63BB88B390
:10D16000C7EE276A20EE260A30BD2B2A08BF0346E9
:10D17000B7EE000AB0E707EE901AF8EEE77AE7EEAE
:10D18000267AB0EE677AACE707EE902AF8EEE77AF7
:10D19000C7EEA65A66EE866A37EE257AB0E72B2AE6
:10D1A00014BF013302330020BBE705FB0212BBE7CB
:10D1B00067EEA67A083AC8E767EEA67A013BCDE7A4
:10D1C000F7EE007A67EE276ACCE700BF00000000A8
:10D1D00020BCBE4C70B5034610F8012B202AFAD0B3
:10D1E000092AF8D02D2A0ABF034601254FF0FF3542
:10D1F000591E00240A2611F8010FFFF7D1FE092855
:10D2000002D905FB04F070BD06FB0404F3E72DE929
:10D21000F04F8FB036F0CAFE36F0A2FE4FF0000895
:10D22000DFF82C930646444647464546BE4200F387
:10D23000A880642C40F04E816825DFF8E882B64B68
:10D24000D8F84C7143F8187C4C22554308EB050381
:10D250000021184658F000F84C22002157F0FCFF3E
:10D26000AE4A48F805200122C0E90466C0E9077704
:10D270008260AB4A826247620534A74BA94D53F8DE
:10D28000187C7300B3F1805F18DA4C2254432B19D9
:10D290000021184657F0E0FF4C22002157F0DCFF38
:10D2A000A14A2A5102224271C6F10066012296402B
:10D2B000C0E90466C0E90777826047629B499948E4
:10D2C0004FF4987255F058FE964B04211A460139D6
:10D2D000C2E90777576202F14C02F8D1AC68002C22
:10D2E0004CD12A79002A49D02A68002A46D0C5E9BB
:10D2F00011118C482964E9630F468C46C66C00F115
:10D300004C02002E40F0268102221868002840F0CE
:10D310005181901E864A874BC2F8343A3E23C2F8A8
:10D32000383A3F23C2F83C3A4023C2F8403AC2F8A8
:10D33000501AC2F85C4AC2F84C0A810F83000028D8
:10D3400000F0628140F2FF141B1941F100015B0AF9
:10D3500043EAC15303F140010B44C2F8483A03EBDE
:10D36000C003C2F8441AC2F8303AC2F8545AC2F89C
:10D37000585A714AD90D5B0242E902310FB0BDE83B
:10D38000F08F202206A9384636F0D0FD6B491222D4
:10D3900006A857F0FDFE0090002840F08980AF42BB
:10D3A0001DD067490C20621C00FB0414CA46654965
:10D3B00001922046FFF70AFB01214AF84C4BC9E9CC
:10D3C00002155749C9F82810019AD9F81C10A7EB83
:10D3D000050BC9E904BBC9E908111446D1464E4BF7
:10D3E00053F8182CC9F81C203D46122202F13803CC
:10D3F000501C0DEB0302544B12F8201C13F80820AC
:10D40000914258D108F10108B8F1150F55D12022E9
:10D4100006A9284436F08AFD00254C4905AA06A82D
:10D4200056F0A2FDCDE902550195AA46AB4630B3B0
:10D430000BF1FF32042A04D8DFE802F00E12161AAC
:10D440001E00FFF7C7FE8246404905AA00200BF1E7
:10D45000010B56F089FDEAE7FFF7BCFE0190F3E708
:10D46000FFF7B8FE0290EFE7FFF7B4FE0390EBE79B
:10D47000FFF7B0FE0546E7E7FFF7ACFE0090BAF114
:10D48000000F12D0DDE9012343EA4212039B6D0134
:10D4900045EAC325009BAAF2BC7A42EA4A2A45EA39
:10D4A000630545EA0A45C9F81C50642C2ED03D4658
:10D4B00007F50067BAE64FF00008202808D12035AC
:10D4C000AE42F2DB024606A9284636F02FFD0020C8
:10D4D00002468BE7AF4219D0A7EB0508184F0C2185
:10D4E00001FB04770134224616493846FFF76EFAED
:10D4F0000122C9E902250A4AC9F82820D9F81C20C6
:10D50000C9F80070C9E90488C9E90822251D002C62
:10D510007FF493AE0424B0E6F81000202922070817
:10D52000F9990008A44300203622070890730608E2
:10D53000D81A00204322070808250020ED210708FB
